:020000040800F2
:10000000E004002045010008071400084B12000816
:1000100005140008DD010008591800080000000060
:100020000000000000000000000000000B140008A9
:10003000DF01000800000000091400080D1400088A
:100040005F0100085F0100085F0100085F01000810
:100050005F0100085F010008E10100085F0100087E
:100060005F0100085F0100085F0100085F010008F0
:100070005F0100085F0100085F0100085F010008E0
:100080005F0100085F0100085F0100085F010008D0
:100090005F0100085F0100085F0100085F010008C0
:1000A0005F010008A91400085F0100085F01000853
:1000B000B51400085F0100085F0100085F01000837
:1000C0005F0100085F0100085F0100085F01000890
:1000D0005F0100085F0100085F0100085F01000880
:1000E0005F0100085F0100085F0100085F01000870
:1000F0005F0100085F0100085F0100085F01000860
:100100005F0100085F0100085F0100085F0100084F
:100110005F0100085F0100085F0100085F0100083F
:100120005F0100085F0100085F0100085F0100082F
:10013000DFF80CD000F040F8004800472D1A000806
:10014000E00400200648804706480047FEE7FEE737
:10015000FEE7FEE7FEE7FEE7FEE7FEE7FEE7FEE777
:100160006114000831010008D2B201E000F8012B4F
:10017000491EFBD270470022F6E710B513460A4627
:1001800004461946FFF7F0FF204610BD30B50B4678
:10019000014600202022012409E021FA02F59D42B7
:1001A00005D303FA02F5491B04FA02F52844151E8B
:1001B000A2F10102F1DC30BD064C074D06E0E0681B
:1001C00040F0010394E8070098471034AC42F6D39E
:1001D000FFF7B2FF681A0008881A0008FEE77047A8
:1001E000012000F059B8704770B5044600F062F97C
:1001F0000546601C02D004480078044400F05AF917
:10020000401BA042FAD370BD0C00002070B5164D03
:1002100004464FF480763146284600F045F9A04266
:100220000AD10A20FFF7E0FF3146284600F03CF9EA
:10023000012812D10DA00EE03146284600F034F915
:10024000A0420AD10A20FFF7CFFF3146284600F02E
:100250002BF910B90BA001F001FB6420FFF7C4FFDC
:100260000C48046070BD00000010014077616B65B0
:10027000207570206B6579207072657373656420DA
:100280000D0A00006B65792030207072657373650C
:10029000640A000014040140044910B50A680242CF
:1002A00002D00860FFF7B2FF10BD00001404014047
:1002B0002DE9F84FDFF8C891002409F1040A0AF18A
:1002C000040B23460F270BF1040ED1E00125A540B6
:1002D00006EA0502AA4276D1DFF8A8C14E68A6EB6D
:1002E0000C0866452BD00DDC032E34D005DC36B36C
:1002F000012E19D0022E2FD11BE0112E16D0122E56
:100300002AD119E0B8F5881F19D006DCB8F5803F6E
:1003100015D0B8F5801F1FD111E0B8F5001F0ED021
:10032000B8F5041F18D10AE0CB6815E0CB681B1D97
:1003300012E0CB6808330FE0CB680C330CE08B681D
:100340002BB1012B4FF0080303D0456104E00423D7
:1003500002E0056100E00023FF2A01D8064601E023
:1003600000F104064FEA840501D9A5F12005D6F86D
:10037000008007FA05FC28EA0C0803FA05F548EAAC
:100380000508C6F800804D68ED0070D53E4DAE6999
:1003900046F00106AE61AD6924F0030605F00105E3
:1003A00000953A4D06EB050CDCF80850A607360F11
:1003B00007FA06F825EA0805DFF8D480404503D19E
:1003C0004FF0000825E052E0DFF8C880404502D138
:1003D0004FF001081DE0DFF8C080404502D14FF02A
:1003E000020816E0DFF8B480404502D14FF0030860
:1003F0000FE0DFF8AC80404502D14FF0040808E080
:10040000DFF8A080404502D14FF0050801E04FF031
:10041000060808FA06F848EA0508CCF808804D688E
:10042000D9F80060ED034D4601D5164300E0964330
:100430002E604D68DAF80060AD03554601D51643CD
:1004400000E096432E604D68DBF80060ED025D46EB
:1004500001D5164300E096432E604D68DEF800603B
:10046000AD02754601D5164300E096432E60641C2C
:100470000A681646E2407FF429AFBDE8F88F000015
:100480000004014000001110001002400000014073
:1004900000080140000C0140001001400014014020
:1004A00000180140001C01408068084000D0012075
:1004B0007047000001488068704700000C00002071
:1004C0000248816802781144816070470C00002066
:1004D000074810B5016841F010010160032000F0E9
:1004E00075F8002000F006F800F024F8002010BD98
:1004F0000020024070B50D4D04464FF47A71287803
:10050000B1FBF0F00A490968B1FBF0F000F0ECFA39
:1005100048B9102C07D200222146501E00F036F8B0
:1005200000206C6070BD012070BD00000C00002038
:10053000180000200C4808B5816941F00101816173
:10054000816901F001010091C16941F08051C161EF
:10055000C06900F0805000900448416821F0E061DB
:1005600041F08061416008BD001002400000014080
:10057000002809DB00F01F020121914040098000A2
:1005800000F1E020C0F8001170470000F0B40E4BFD
:100590001B680C46C3F30223C3F10705042D00D9E1
:1005A0000425191D072901D2002300E0DB1E0126C6
:1005B00006FA05F1491E214099409E40761E1640DC
:1005C0003143F0BC01F05AB90CED00E0064900F0EF
:1005D000070208684FF6FF03184040EA0220034A6A
:1005E00010430860704700000CED00E00000FA05C1
:1005F0002DE9F0470F46050061D0434E306800F00A
:100600000700B84209D2306820F007003843306054
:10061000306800F00700B84251D128683B4C810790
:1006200012D5400703D5606840F4E0606060287828
:10063000000703D5606840F4605060606068A96896
:1006400020F0F000084360602878C00728D0686870
:10065000012810D02168022810D0890700292EDA3D
:10066000616821F0030101436160FFF723FF8046C9
:1006700041F288390DE021688903EFE78901EDE750
:10068000FFF718FFA0EB0801494502D90320BDE898
:10069000F0876068696800F00C00B0EB810FEFD163
:1006A000306800F00700B8420BD9306820F007002E
:1006B00038433060306800F00700B84201D00120B4
:1006C000E5E72878400705D56068E96820F4E06030
:1006D000084360602878000706D56068296920F41F
:1006E000605040EAC100606000F038F86168084A74
:1006F000C1F30311515CC840064908600648006810
:10070000FFF7F8FE0020C2E7002002400010024080
:10071000501A000818000020100000200448054965
:1007200000684968044AC1F30221515CC84070471F
:100730001800002000100240601A00080448054913
:1007400000684968044AC1F3C221515CC84070473F
:100750001800002000100240601A000812A185B0A5
:100760000FC98DE80F0014A0144A00680490516866
:10077000134801F00C03042B10D0082B0ED1C1F349
:100780008343C9031DF803000AD5516804AAC1F3C5
:100790004041515C0A4A5043B0FBF1F005B070474C
:1007A00008494843FAE70000020304050607080960
:1007B0000A0B0C0D0E0F1010010200000010024079
:1007C00000127A0000093D002DE9F84F040070D0B6
:1007D0002078C04DC00749D06868C0F38100012867
:1007E00007D06868C0F38100022809D16868C00397
:1007F00006D52868800339D560680028E7D035E041
:100800006068B0F5803F0BD010B1B0F5A02F11D0CB
:10081000286820F480302860286820F4802002E0D6
:10082000286840F480302860606890B1FFF742FE8D
:1008300006460AE0286840F480202860F0E700BF00
:10084000FFF738FE801B642873D828688003F7D52B
:100850000CE0FFF72FFE064605E000BFFFF72AFE7B
:10086000801B6428F0D828688003F7D420789A4E3B
:1008700080074FF001094FF0000839D5686810F083
:100880000C0F07D06868C0F38100022809D168689E
:10089000C00306D42868800714D52069012808D130
:1008A00010E02069B0B1C6F80090FFF703FE0746DC
:1008B00005E00AE1FFF7FEFDC01B0228C4D8286846
:1008C0008007F7D52868616920F0F80040EAC10088
:1008D00028600DE0C6F80080FFF7ECFD074604E055
:1008E000FFF7E8FDC01B022823D828688007F7D44B
:1008F000207800072CD57948A169D9B1C0F80090BB
:10090000FFF7D8FD074604E0FFF7D4FDC01B02281F
:100910000FD8686A8007F7D571484FF4FA5100681C
:10092000B0FBF1F0009000BF0098411E0091FAD298
:100930000EE080E0C0F80080FFF7BCFD074604E051
:10094000FFF7B8FDC01B022875D8686A8007F7D486
:100950002078400760D5E8690027C00008D4E8691E
:1009600040F08050E861E869012700F08050009075
:100970005C480168C90513D40168834641F480715D
:100980000160FFF797FD824606E000BFFFF792FD8A
:10099000A0EB0A0064284ED8DBF80000C005F5D5AE
:1009A000E06801280AD008B1052813D0286A20F091
:1009B00001002862286A20F0040002E0286A40F062
:1009C00001002862E06841F2883B98B1FFF772FDB0
:1009D00082460BE0286A40F004002862EEE700BF80
:1009E000FFF768FDA0EB0A0159455AD8286A80072D
:1009F000F6D50CE0FFF75EFD824605E0FFF75AFDF5
:100A0000A0EB0A0159454CD8286A8007F6D41FB1DB
:100A1000E86920F08050E861E06988B36968C1F353
:100A20008101022944D00228C6F8608004D0FFF773
:100A300041FD044638E034E0FFF73CFD074604E0A2
:100A4000FFF738FDC01B02282BD828688001F7D497
:100A5000206AB0F5803F05D16868A16820F40030B5
:100A600008436860D4E908010843696821F47411F7
:100A700008436860C6F86090FFF71CFD044606E076
:100A800025E000BFFFF716FD001B022809D82868E3
:100A90008001F7D51BE000BFFFF70CFD001B02280B
:100AA00002D90320BDE8F88F28688001F4D40EE055
:100AB0000128F7D06868226A00F48031914204D19D
:100AC000616A00F47010884201D00120EAE700203A
:100AD000E8E7000000100240000042428004424269
:100AE000180000200070004010B5401EB0F1807F5B
:100AF00001D3012010BD4FF0E02460610F21601789
:100B000000F0BCFE0020A06107202061002010BD85
:100B10007047704770B590F83C20012A19D0012425
:100B200000F83C4F0222427050F83C3C5A689D68E5
:100B300022F070060A684968324325F0800529438F
:100B40005A6050F83C2C91604470002101700846B6
:100B500070BD022070BD10B5040003D094F83D00B4
:100B600010B107E0012010BD002084F83C002046B1
:100B700000F00CF8022084F83D00211D206800F0F0
:100B80009FFC012084F83D00002010BD08B5154AE7
:100B90000168154891420ED1816941F4006181617B
:100BA0008069002200F40060009011461920FFF7D0
:100BB000EDFC192010E0B1F1804F11D1C16941F075
:100BC0000101C161C069002200F0010000900F2105
:100BD0001C20FFF7DBFC1C20BDE80840FFF7C8BC69
:100BE00008BD0000002C0140001002400168CA68E6
:100BF00042F00102CA600068816801F0070106291D
:100C000003D0016841F001010160002070470168D4
:100C1000CA6822F00102CA600068016A41F211123A
:100C2000114207D1016A9210114203D1016821F0EB
:100C3000010101600020704770B5044690F83C0047
:100C4000012817D0012584F83C50022084F83D008B
:100C50002068826822F0770222F47F42826008686E
:100C6000502830D00DDC20284DD005DC98B310285A
:100C70003BD148E0022070BD302844D0402834D118
:100C800039E0602828D0702806D0B0F5805F2CD0DD
:100C9000B0F5005F29D10AE0CB68D1E901212068D5
:100CA00000F054FC2068816841F0770109E0CB68CE
:100CB000D1E90121206800F049FC2068816841F4F5
:100CC0008041816011E0CA684968206800F012FD27
:100CD0005021206807E016E0CA684968206800F0E3
:100CE0001AFD6021206800F03BFC84F83D50002094
:100CF00084F83C0070BDCA684968206800F0FAFCBE
:100D000040212068EFE7226801461046EBE7704774
:100D100070B50446006801694FF00005C9438907B2
:100D200015D4C168C943890711D4E91E01610120A6
:100D30002077206880698007204602D0FFF7E7FF10
:100D400004E000F0C9F8204600F04BF92577206850
:100D50000169C943490717D4C168C943490713D476
:100D60006FF004010161022020772068806910F48F
:100D7000407F204602D0FFF7CAFF04E000F0ACF845
:100D8000204600F02EF9257720680169C94309073C
:100D900016D4C168C943090712D46FF00801016174
:100DA000042020772068C0698007204602D0FFF722
:100DB000AEFF04E000F090F8204600F012F925772D
:100DC00020680169C943C90617D4C168C943C90667
:100DD00013D46FF010010161082020772068C069EA
:100DE00010F4407F204602D0FFF791FF04E000F0AE
:100DF00073F8204600F0F5F8257720680169C943AB
:100E0000C90708D1C168C943C90704D1891E016156
:100E1000204600F0E7F820680169C943090609D4B3
:100E2000C168C943090605D46FF0800101612046FD
:100E3000FFF76EFE20680169C943490609D4C168FD
:100E4000C943490605D46FF040010161204600F016
:100E500035F920680169C94389060BD4C168C943C3
:100E6000890607D46FF0200101612046BDE870407B
:100E7000FFF74FBE70BD000000B585B000210091A6
:100E80000191029103910068B0F1804F1BD10F488E
:100E9000816941F0040181618069694600F00400C4
:100EA00004904FF400400090022001900390084805
:100EB000FFF7FEF90748416821F4407141F0E06115
:100EC00041F48071416005B000BD00000010024097
:100ED0000008014000000140704770B5044690F8DA
:100EE0003C000D4601280DD0012684F83C6002200C
:100EF00084F83D0042B1042A18D0082A2AD00C2ACE
:100F00004DD139E0022070BD206800F031FB20682F
:100F1000816941F0080181612068816921F0040143
:100F20008161206881692A69114311E0206800F01D
:100F30004FFB2068816941F400618161206881690B
:100F400021F480618161206881692A6941EA022176
:100F5000816124E0206800F071FB2068C16941F0E4
:100F60000801C1612068C16921F00401C1612068E4
:100F7000C1692A69114311E0206800F093FB2068E1
:100F8000C16941F40061C1612068C16921F48061D7
:100F9000C1612068C1692A6941EA0221C16184F8FE
:100FA0003D60002084F83C0070BD10B5040003D003
:100FB00094F83D0010B107E0012010BD002084F836
:100FC0003C00204600F00CF8022084F83D00211D72
:100FD000206800F075FA012084F83D00002010BD63
:100FE000704770472DE9F0412B49054600680968B4
:100FF0002A4C884205D12168481C206028A000F0B6
:101000002DFC294928680968884238D1274F4FF4B8
:10101000807631463846FFF747FA00282FD1012065
:101020000025A060C820FFF7DFF831463846FFF7FB
:101030003BFA10B9A068401CA0606D1C022DF1DBCA
:10104000A068022801DD0220A0600025012806D04A
:101050000228114815D0BDE8F041FFF7D8BD6068FF
:10106000012801D0012000E00020606000280A482B
:1010700002D0FFF7BBFD01E0FFF7C9FDA560BDE8A9
:10108000F081FFF7C4FD25606560A560BDE8F04113
:1010900007A000F0E3BB00002000002000000020BB
:1010A0002564206D730D0A006000002000100140CF
:1010B000D2D1C7E5C1E3200D0A000000704770B52A
:1010C000040004D094F83900002510B106E0012096
:1010D00070BD84F83850204600F022F8242084F8AF
:1010E00039002068C16821F40051C160204600F039
:1010F00025FB2068016921F4904101612068416964
:1011000021F02A0141612068C16841F40051C160A9
:10111000E563202084F8390084F83A00002070BD8F
:1011200030B585B0002400940194029403940068C3
:101130001449884224D11448816941F48041816175
:10114000816901F480410491816941F00401816168
:1011500080690E4D00F0040004904FF40070009080
:10116000022001900320039069462846FFF7A0F86B
:101170002815CDE90004694628460294FFF798F83F
:1011800005B030BD003801400010024000080140A9
:101190002DE9F843044690F839001F4616460D46DF
:1011A000202850D1A5B19EB194F8380001284AD02A
:1011B000012084F838004FF00008C4F83C8021205A
:1011C00084F83900FFF776F9A6848146E68426E0A4
:1011D0000120BDE8F883E08C401EE084A0684B4607
:1011E000B0F5805F4FF000024FF08001204600977D
:1011F00003D000F0FFFAE8B90DE000F0FBFAC8B93F
:1012000028882168C0F308004860206908B16D1C77
:1012100005E0AD1C03E0216815F8010B4860E08C87
:101220000028D8D14B46002240212046009700F0EC
:10123000E1FA08B10320CCE7202084F8390084F8D3
:1012400038800020C5E70220C3E7FEE730B585B04F
:101250001A4800240394816941F020018161816969
:1012600001F020010491816941F0040181618169EB
:1012700001F004010491816941F0100181618069EC
:10128000012500F0100004900D486946CDE900509A
:10129000022002900B48FFF70BF828028DE831007E
:1012A00069460948FFF704F8002211460620FFF7B7
:1012B0006DF90620FFF75CF905B030BD0010024063
:1012C00000001110000801400010014010B586B068
:1012D0000024174800940194029403940494134941
:1012E000059401604721C0E9011440F2E731C0E9EB
:1012F000031444618461FFF72EFC08B1FEF773FF0D
:101300004FF48050009069460948FFF795FC08B1FA
:10131000FEF769FF049404A905480594FFF7FAFB5A
:10132000002801D0FEF75FFF06B010BD002C014081
:101330002000002010B58EB0002407940894099472
:101340000A940B941C2168460C94FEF714FF1E4867
:101350004FF08041016040F2CF21C0E9011440F21A
:10136000E731C0E903148461FFF7F5FB08B1FEF72C
:101370003AFF4FF48050079007A91348FFF75CFC31
:1013800008B1FEF730FF1048FFF70FFE08B1FEF777
:101390002AFF0B940BA90C480C94FFF7BBFB08B178
:1013A000FEF721FF6020CDE9000402940022694687
:1013B00005480494FFF791FD08B1FEF714FF0248B9
:1013C000FFF75AFD0EB010BD600000200C4810B5AC
:1013D0000A4901604FF4E1314160002181600C2233
:1013E000C160C0E904128161C161FFF768FE002895
:1013F00003D0BDE81040FEF7F6BE10BD0038014036
:10140000A0000020FEE7704770477047FFF758B80C
:1014100030B58FB028216846FEF7ADFE14210AA82A
:10142000FEF7A9FE01210804CDE900100024029472
:1014300002250491CDE907504FF4E0100990684669
:10144000FFF7C2F90F20CDE90A056802CDE90C408B
:1014500002210AA80E94FFF7CBF80FB030BD0000B0
:101460000D48016841F00101016041680B4A1140DB
:10147000416001680A4A11400160016821F480213D
:101480000160416821F4FE0141604FF41F01816059
:101490000449C00308607047001002400000FFF8D4
:1014A000FFFFF6FE08ED00E00148FFF731BC000049
:1014B000200000200148FFF72BBC00006000002046
:1014C000F0B502681C4B1D4D1D4E1E4F1E4C4FF0BB
:1014D000804C984209D0A04207D0604505D0A84270
:1014E00003D0B04201D0B84204D122F0700E4A6855
:1014F00042EA0E02984209D0A04207D0604505D0CA
:10150000A84203D0B04201D0B84203D122F44075C2
:10151000CA682A434D6922F080022A4302608A6821
:10152000C2620A688262984201D0A04201D1096970
:10153000016301214161F0BD002C01400004004025
:1015400000080040000C00400034014010B58468E1
:1015500042EA032224F47F440A432243826010BDFE
:10156000826822F070020A4342F0070181607047EE
:10157000F0B5026A22F001020262036A42688469DD
:10158000124E24F073050C682C4323F002058B687F
:101590002B430D4DA84201D0B04205D123F00807DE
:1015A000CB683B4323F00403A84201D0B04205D1ED
:1015B0004D6922F4407215438A692A43426084616E
:1015C000496841630362F0BD002C014000340140D2
:1015D000F0B5026A22F010020262026A436884696E
:1015E0000D6824F4E64444EA05248D6822F02002C4
:1015F00042EA05120F4D104EA84201D0B04206D16A
:10160000CF6822F0800242EA071222F04002A8428C
:1016100001D0B04207D14D6923F4406343EA85030A
:101620008D6943EA8503436084614968816302628E
:10163000F0BD0000002C014000340140F0B5026A0A
:1016400022F480720262026A4368C46922F4007262
:1016500024F073050C68124E2C438D6842EA052273
:101660000E4DA84201D0B04206D1CF6822F40062EC
:1016700042EA072222F48062A84201D0B04207D198
:101680004D6923F4405343EA05138D6943EA05137A
:101690004360C4614968C1630262F0BD002C01402F
:1016A0000034014030B5026A22F480520262046ABA
:1016B0004268C3690D6823F4E64343EA05238D6855
:1016C00024F4005444EA0534084DA84202D0084DE1
:1016D000A84204D14D6922F4804242EA8512426058
:1016E000C36149680164046230BD0000002C014000
:1016F0000034014010B5036A046A24F00104046256
:10170000846924F0F00444EA021423F00A020A4334
:101710008461026210BD10B5036A23F010030362F6
:101720008369046A23F4704343EA023224F0A0037D
:1017300043EA01118261016210BD00002DE9F04110
:10174000044600680169E26821F4405111430161D7
:101750002169A0680843616908432168CA6841F2A9
:101760000C639A430243CA6020684169A26921F46C
:101770004071114341611E49206864253226884228
:1017800002D1FEF7DBFF01E0FEF7C8FF00EBC0016E
:1017900001EB001160686FF018078000B1FBF0F2F8
:1017A000B2FBF5F2B1FBF0F37A4303EB8202B1FB3B
:1017B000F0F306EB0212B2FBF5F2B3FBF5F302F025
:1017C000F00202EB0312B1FBF0F3B1FBF0F0B0FB5F
:1017D000F5F0784303EB800006EB0010B0FBF5F06A
:1017E000216800F00F0010448860BDE8F08100001F
:1017F000003801402DE9F041984617460E46044650
:10180000069D1DE0681C1BD02DB1FEF753FEA0EB1A
:101810000800A84214D92068C16821F4D071C160C1
:101820002068416921F001014161202084F83900DC
:1018300084F83A00002084F838000320BDE8F081E5
:101840002068006836EA000004D00020B842D9D0F1
:101850000020F3E70120F9E7FEE700000FB4054B95
:1018600010B503A9044A029800F028F810BC5DF8EE
:1018700014FB0000111A00081C0000200907090EC3
:10188000002804DB00F1E02080F80014704700F02D
:101890000F0000F1E02080F8141D704702E008C836
:1018A000121F08C1002AFAD170477047002001E0DA
:1018B00001C1121F002AFBD1704700002DE9FF4F24
:1018C00089B09B460446002506E025280BD05A46E1
:1018D0000B999047641C6D1C20780028F5D10DB041
:1018E0002846BDE8F08F0027B8460122474900E0AE
:1018F000074314F8013F203B02FA03F00842F7D1F6
:1019000020782E2819D114F8010F47F004072A284F
:101910000ED06FF02F022078A0F1300109290CD8E9
:1019200008EB880102EB410100EB0108641CF2E7BF
:101930000A98641C50F8048B0A9020780028CED0B6
:10194000642808D0692806D075281ED05A460B99FD
:1019500090476D1C58E00A994FF00A0901C90A9195
:10196000002802DA40422D2102E0390504D52B215E
:101970008DF82010012103E0F90704D02021F7E7BA
:101980008A4608AE0DE00021FAE70A994FF00A09ED
:1019900001C90A91F7E74946FEF7F8FB303106F82E
:1019A000011D0028F7D1ADEB060000F120097807F2
:1019B00001D44FF00108C84502DDA8EB090000E0A2
:1019C00000208046002706E008A85A46C05D0B9913
:1019D00090476D1C7F1C5745F6DB04E030205A46CB
:1019E0000B9990476D1CB8F10001A8F10108F5DCD6
:1019F00005E016F8010B5A460B9990476D1CB9F19A
:101A00000001A9F10109F4DC641C65E70928010063
:101A100038B504468DF800000223012269460248C9
:101A2000FFF7B6FB204638BDA0000020FEF750FDB2
:101A3000FFF7EEFCFFF70AFCFFF7C8FCFFF746FCD8
:101A4000FFF778FC0148FFF7D1F8FEE760000020BF
:101A5000000000000000000001020304060708095E
:101A60000000000001020304881A000800000020A2
:101A7000200000009C180008A81A00082000002080
:101A8000C0040000AC1800080000000000000000C6
:101A90000000000001000000100000000000000035
:081AA0000024F4000000000026
:0400000508000131BD
:00000001FF
